:02000000FDC33E
:1000060022C318951895189518951895189518954A
:100016001895189518951895189518951895189572
:100026004A006A0000000A00600004091FB7F8943D
:100036008E989698869903C01FBF02E008958E9AFF
:10004600969823ED33E021503040E9F700C00000D8
:100056008E9896980AEB0A95F1F700C0869902C029
:1000660000E001C001E023E333E021503040E9F72E
:1000760000C000001FBF089500D4902F80E009C083
:10008600482F01E010E0CFD3102F092F012305D010
:1000960083958830A8F3E2E001C41FB7F8948E9ADE
:1000A600969800C000C000C000C0002311F08E98D2
:1000B60096980DE90A95F1F700008E9896981FBF5D
:1000C6000895DBD390E080E009C00DD0002329F02D
:1000D600482F01E010E0A7D3902B83958830A8F332
:1000E600092FE2E0DBC31FB7F8948E9A969800C0FA
:1000F60000C000C000C08E9896980AE10A95F1F7F4
:1001060000C000B3007428E72A95F1F71FBF0895D1
:1001160040E0202F022F0A952223A1F0E12FF0E0E4
:1001260020814227139530E004C04695242F422FA4
:100136003395383070F740FBC6F746952CE84227D2
:10014600242FF5CF042F08958AD3C250098318832C
:1001560088249924AA24BB24CC2468DF002331F008
:1001660020E01981E12FF0E0208369C000EF84DFF1
:10017600442455246624772481E090E0A0E0B0E092
:10018600FF2401C0F39408E0F01609F44AC010E019
:1001960008E0C09E0881000D0F0DE02FF0E01083EF
:1001A600DD2428C08C019D010150104020403040C4
:1001B600240135014022512262227322482A592AFB
:1001C6006A2A7B2A880F991FAA1FBB1F0E2D65DF7F
:1001D600EE2079F04D2D01E010E025D3102F08E038
:1001E600C09E0881000D0F0DE02FF0E00081012B6D
:1001F6000083D39408E0D01629F275DFE02E73DF72
:10020600EE2021F7002311F78C019D010821192109
:100216002A213B21012B022B032B21F2EE24E3940E
:10022600D1CF42015301C394082D09290A290B296C
:1002360009F093CF0981E02FF0E0C08200E0CE5FA5
:10024600E0E11EC319D3C950A02F912FEFDE802FF6
:10025600882311F0082F26C005E50EDF80E006C0D2
:10026600EA2FE80FF0E0008107DF83958830C1F7B9
:100276000EEB02DF80E006C024DFEC2FE80FF0E093
:10028600008383958930C1F71C2F09E041DF0023E5
:1002960041F408811981E92FF0E00083118300E021
:1002A60001C004E0C75FE3E0F8C2C0DE002351F4FA
:1002B6000CECE2DE04E4E0DE04DF002311F400E0EF
:1002C600089503E0089500E00AC02CE831E012E04A
:1002D600019FE02DE659F0E02083318303950B3032
:1002E600A1F700E013C02CE831E014E0019FE02DF7
:1002F600E058F0E02083318320E030E014E0019FF5
:10030600E02DE058F0E0228333830395063059F759
:100316000895089540E05FB7F89422E0429FE02DEB
:10032600E659F0E0608171812CE831E062177307CD
:1003360029F043954B3089F75FBF089522E0429F2D
:10034600E02DE659F0E0008311835FBF0895A80110
:100356002FB6F89400E001C00395063099F014E03A
:10036600019FE02DE058F0E0608171816417750708
:1003760099F714E0019FE02DE058F0E022833383E3
:100386002FBE089500E001C003950630E1F014E0A9
:10039600019FE02DE058F0E0008011806CE871E0EC
:1003A6000616170689F714E0019FE02DE058F0E0E5
:1003B6004083518314E0019FE02DE058F0E0228352
:1003C60033832FBE08952FBE0895F89420916A00B6
:1003D60030916B0089012CE831E00217130719F4FC
:1003E600789497DF089520E00FC032E0239FE02D38
:1003F600E659F0E04281538132E0239FE02DE65931
:10040600F0E04083518323952A3079F72CE831E0D8
:1004160020937E0030937F007894F8010995089523
:100426008A9380E012C004E0809FE02DE058F0E05F
:10043600008111816FDF0CE811E024E0829FE02D3E
:10044600E058F0E0008311838395863019F104E0CB
:10045600809FE02DE058F0E0208131810CE811E02A
:100466002017310789F304E0809FE02DE058F0E083
:1004760002811381013020E01207A9F204E0809F77
:10048600E02DE058F0E00281138101501040028314
:100496001383DACF899108950CE005BD00E004BD11
:1004A6000DE703BD00E809BF78940895A098A89ABF
:1004B600A198A99A0895BA9AB89ABE9ABC9ABB9A74
:1004C600B99ABF9ABD9A8A9A8C9A8D9A8B9AC29833
:1004D600C098C698C498C398C198C798C59892986A
:1004E60094989598939800E006C010E0E02FE8569F
:1004F600F0E0108303950430C0F30895BDD1C80120
:10050600A0E00DC000E01A2F1195E12FE856F0E0AB
:1005160003834AE050E08C018ED1C801A395A43034
:10052600A0F44AE050E08C0186D1082F092B11F483
:10053600AA2341F7E42FE05AF0E000811A2F119523
:10054600E12FE856F0E00383E4CFE3E0A6C10A9585
:10055600202F0DC0E22FE856F0E03081332331F42E
:1005660030916000E22FE856F0E0308323952117A2
:1005760088F3E02FE856F0E00081006800830895D4
:100586007CD1822F90E011232AF4009510950F5FFD
:100596001F4F91E0B3DF882329F0853040F414E043
:1005A600082FD5DF992319F000E400939800E2E0C4
:1005B60075C130E0C298C098C698C498C398C198CF
:1005C600C798C598929894989598939800919C008E
:1005D600E02FE856F0E0208140919C0001E010E019
:1005E60022D1302F00919C00039500939C0000912E
:1005F6009C00043018F000E000939C0020FB0EF4F1
:10060600C29A21FB0EF4C09A22FB0EF4C69A23FB73
:100616000EF4C49A24FB0EF4C39A25FB0EF4C19A79
:1006260026FB0EF4C79A27FB0EF4C59A30FB0EF490
:10063600929A31FB0EF4949A32FB0EF4959A33FBA0
:100646000EF4939A08958A93FA93EA933A922A9229
:100656001A920A927A936A935A934A933A932A93EE
:100666001A930A938FB7DCDE8FBF099119912991EE
:1006760039914991599169917991099019902990E7
:100686003990E991F9918991189593DF21E030E04D
:1006960008E413E05CDE089511EA01EB55DD20E184
:1006A60037E20FE413E053DE0895FFDD20E233E086
:1006B6000FE513E04CDE089500E00093B3003EC062
:1006C6001091B30002E0109F1DE9100D2091B300B8
:1006D60008E0209F01EA000DB5DD0093B2001091FD
:1006E600B30002E0109FE02DE356F0E00081118197
:1006F60044E09ED04AE050E08CD098011091B300BF
:1007060002E0109FE02DE356F0E0408151814F70EA
:1007160050700AE010E07DD044E08AD0200F311FEF
:100726001091B30002E0109FE02DE356F0E0208325
:1007360031830091B30003950093B3000091B30099
:100746001091B100011708F4BBCF0091B20000234D
:1007560031F428E630E108E513E0F9DD089508EB09
:1007660012E200939D0010939E0020EB34E00FE50B
:1007760013E0EDDD089523E000919D0010919E00A9
:10078600FFDE0091B100023030F028E833E104EDDD
:1007960013E0DDDD089528E833E10EEB13E0D7DD45
:1007A600089523E000919F001091A000E9DE28E85B
:1007B60033E10EEB13E0CBDD089578DE84DD6CDEED
:1007C60008E413E0A7DD0FE413E0A4DD08E513E079
:1007D600A1DD0EEB13E09EDD6EDEA895F6DDFDCF06
:1007E60008954BD0C250C801888399831C2F01E01D
:1007F600F7DFFACFF6CF03EF0DBF00E00EBFC4ED73
:10080600D0E053D0002309F060D0D7DF01D0F2CF7B
:10081600F1CF149F102D059F100D049F002D110D73
:100826000895000F111F4A95E2F70895159507954B
:100836004A95E2F7089500241124EFE0001F111FE6
:10084600001C111C0416150610F0041A150AEA9568
:10085600AAF7001F111FA001009510950895FA929E
:10086600EA92DA92CA92BA92AA929A928A927A9262
:100876006A925A924A92BA93AA939A938A9308953D
:10088600FF84EE84DD84CC84BB84AA849984888426
:100896007F806E805D804C80BB81AA819981888132
:1008A600F0E0EC0FFD1FEF01089501E0089520E050
:1008B60006D0E9F70895259102D0E9F708952D931A
:1008C60001501040202F212B089586E290E0FC0174
:1008D60005911491FC013296A591B491FC013496D0
:1008E60025913491422F432B19F0F901E4DF01C021
:1008F600DEDF069610E08233910748F308953F063F
:080906005B4F666D7D077F6FFA
:00000001FF
:00000001FF
